:100000000C942A000C9434000C9434000C943400AA
:100010000C9434000C9434000C9434000C94340090
:100020000C9434000C9434000C9434000C94340080
:100030000C9434000C9434000C9434000C94340070
:100040000C9434000C9434000C9434000C94340060
:100050000C94340011241FBECFE5D8E0DEBFCDBF25
:100060000E9472010C94E3010C940000EAE3F0E0BA
:10007000808182608083EBE3F0E080818260808316
:1000800080EB87BB83E58DB908958FB9EEE2F0E090
:1000900080818823ECF70895FF920F931F93F82E29
:1000A0000BE310E0F80180818D7F80838F2D869592
:1000B0008695869580680E9445008F2D8295880FD1
:1000C000807E0E944500F8018081826080831F91BC
:1000D0000F91FF900895EF92FF920F931F93883036
:1000E000910510F081E025C08C011695102F002796
:1000F00017950795106A862F90E0880F991F880F33
:10010000991F880F991F082B192B0F2EFBE3EF2E39
:10011000FF24F02DF70180818D7F8083812F0E9445
:100120004500802F0E944500F70180818260808316
:1001300080E01F910F91FF90EF900895FB018430B4
:1001400069F1853050F48130D9F08130A0F08230EF
:10015000D9F0833009F03FC01CC0873071F188307E
:1001600028F4853001F18630B1F522C0883051F194
:10017000893089F52CC08BE080838EE081832BC091
:10018000108286E0818327C087E080838CE08183B2
:1001900022C085E080838EE081831DC08CE0808357
:1001A00086E0818318C08DE080838AE0818313C05C
:1001B0008FE080838AE081830EC088E080838EE0B8
:1001C000818309C08FE080838EE0818304C08DE04D
:1001D00080838EE081838E2F9F2F08950F931F932E
:1001E000DF93CF9300D000D000D0CDB7DEB79C0115
:1001F00087E22031380710F081E05CC0C90168EE69
:1002000073E00E94CF016983C90168EE73E00E9428
:10021000CF0164E670E00E94CF016A83C90164E601
:1002200070E00E94CF016AE070E00E94CF016B8312
:10023000C9016AE070E00E94CF018C8389818E0140
:100240000B5F1F4FB8010E949E0080E090E06D811F
:100250000E946B0081E090E06E810E946B008A81B9
:10026000B8010E949E0082E090E06D810E946B00C8
:1002700083E090E06E810E946B008B81B8010E9448
:100280009E0084E090E06D810E946B0085E090E02C
:100290006E810E946B008C81B8010E949E0086E0F6
:1002A00090E06D810E946B0087E090E06E810E947B
:1002B0006B0080E026960FB6F894DEBF0FBECDBF70
:1002C000CF91DF911F910F91089581E00E944C0022
:1002D00089E20E944C0083E00E944C0088E00E946A
:1002E0004C0008958F929F92AF92BF92CF92DF926F
:1002F000EF92FF920F931F93CF93DF9381E08ABB1E
:1003000080E78BBB0E9436000E946501C0E0D0E010
:100310000F2EF9E3EF2EFF24F02D0BE310E00F2E4C
:10032000F0E2CF2EFEE4DF2EF02DAA24BB240F2E08
:10033000FFE08F2EF7E29F2EF02DF701808190E0F5
:100340008077907080359105A9F08036910511F580
:10035000F7E2CF30DF0714F0E50101C02196F80184
:10036000808181608083CE010E94EE00C6010197EA
:10037000F1F7E3CF1C161D0614F0E40101C021972C
:10038000F801808181608083CE010E94EE00C60169
:100390000197F1F7F80180818E7F8083CECFAA1B71
:1003A000BB1B51E107C0AA1FBB1FA617B70710F060
:1003B000A61BB70B881F991F5A95A9F78095909592
:0A03C000BC01CD010895F894FFCFB1
:00000001FF
